:100000000C942A000C9434000C9436000C943400A8
:100010000C9434000C9434000C9434000C94340090
:100020000C9434000C9434000C9434000C94340080
:100030000C9434000C9434000C9434000C94340070
:100040000C9434000C9434000C9434000C94340060
:100050000C94340011241FBECFE5D4E0DEBFCDBF29
:100060000E944E000C9459000C9400001F920F92B5
:100070000FB60F9211248F939F9395B381E0892738
:1000800085BB83ED90E30197F1F700C000009F91DD
:100090008F910F900FBE0F901F901895A09A85B367
:1000A00085BB8B98939A80E88BBF8CE085BF789452
:0600B000FFCFF894FFCF22
:00000001FF
